{
  "contractName": "Springboard",
  "abi": [
    {
      "anonymous": false,
      "inputs": [
        {
          "indexed": false,
          "internalType": "address",
          "name": "",
          "type": "address"
        }
      ],
      "name": "ContractCreated",
      "type": "event"
    },
    {
      "constant": true,
      "inputs": [],
      "name": "bootstrapCode",
      "outputs": [
        {
          "internalType": "bytes",
          "name": "",
          "type": "bytes"
        }
      ],
      "payable": false,
      "stateMutability": "view",
      "type": "function"
    },
    {
      "constant": false,
      "inputs": [
        {
          "internalType": "bytes",
          "name": "runtimeCode",
          "type": "bytes"
        }
      ],
      "name": "execute",
      "outputs": [],
      "payable": true,
      "stateMutability": "payable",
      "type": "function"
    },
    {
      "constant": true,
      "inputs": [],
      "name": "getPendingRuntimeCode",
      "outputs": [
        {
          "internalType": "bytes",
          "name": "runtimeCode",
          "type": "bytes"
        }
      ],
      "payable": false,
      "stateMutability": "view",
      "type": "function"
    }
  ],
  "bytecode": "0x60806040526040518060600160405280602881526020016107066028913960029080519060200190610032929190610045565b5034801561003f57600080fd5b506100ea565b828054600181600116156101000203166002900490600052602060002090601f016020900481019282601f1061008657805160ff19168380011785556100b4565b828001600101855582156100b4579182015b828111156100b3578251825591602001919060010190610098565b5b5090506100c191906100c5565b5090565b6100e791905b808211156100e35760008160009055506001016100cb565b5090565b90565b61060d806100f96000396000f3fe6080604052600436106100345760003560e01c806309c5eabe146100395780638da0fc4b146100f457806394198df114610184575b600080fd5b6100f26004803603602081101561004f57600080fd5b810190808035906020019064010000000081111561006c57600080fd5b82018360208201111561007e57600080fd5b803590602001918460018302840111640100000000831117156100a057600080fd5b91908080601f016020809104026020016040519081016040528093929190818152602001838380828437600081840152601f19601f820116905080830192505050505050509192919290505050610214565b005b34801561010057600080fd5b506101096103f3565b6040518080602001828103825283818151815260200191508051906020019080838360005b8381101561014957808201518184015260208101905061012e565b50505050905090810190601f1680156101765780820380516001836020036101000a031916815260200191505b509250505060405180910390f35b34801561019057600080fd5b50610199610491565b6040518080602001828103825283818151815260200191508051906020019080838360005b838110156101d95780820151818401526020810190506101be565b50505050905090810190601f1680156102065780820380516001836020036101000a031916815260200191505b509250505060405180910390f35b6000809054906101000a900460ff161561022d57600080fd5b60016000806101000a81548160ff021916908315150217905550806001908051906020019061025d929190610533565b50606060028054600181600116156101000203166002900480601f0160208091040260200160405190810160405280929190818152602001828054600181600116156101000203166002900480156102f65780601f106102cb576101008083540402835291602001916102f6565b820191906000526020600020905b8154815290600101906020018083116102d957829003601f168201915b50505050509050600033604051602001808273ffffffffffffffffffffffffffffffffffffffff1673ffffffffffffffffffffffffffffffffffffffff1660601b81526014019150506040516020818303038152906040528051906020012090506000818351602085016000f59050803b61037057600080fd5b7fcf78cf0d6f3d8371e1075c69c492ab4ec5d8cf23a1a239b6a51a1d00be7ca31281604051808273ffffffffffffffffffffffffffffffffffffffff1673ffffffffffffffffffffffffffffffffffffffff16815260200191505060405180910390a160008060006101000a81548160ff02191690831515021790555050505050565b60028054600181600116156101000203166002900480601f0160208091040260200160405190810160405280929190818152602001828054600181600116156101000203166002900480156104895780601f1061045e57610100808354040283529160200191610489565b820191906000526020600020905b81548152906001019060200180831161046c57829003601f168201915b505050505081565b606060018054600181600116156101000203166002900480601f0160208091040260200160405190810160405280929190818152602001828054600181600116156101000203166002900480156105295780601f106104fe57610100808354040283529160200191610529565b820191906000526020600020905b81548152906001019060200180831161050c57829003601f168201915b5050505050905090565b828054600181600116156101000203166002900490600052602060002090601f016020900481019282601f1061057457805160ff19168380011785556105a2565b828001600101855582156105a2579182015b828111156105a1578251825591602001919060010190610586565b5b5090506105af91906105b3565b5090565b6105d591905b808211156105d15760008160009055506001016105b9565b5090565b9056fea265627a7a72315820214290f42617dcaa0738d8c38e6beb4b39a968cfd107b791afc09a2d3ef93d5f64736f6c634300051000326394198df1600052600060006004601c335afa80601b57600080fd5b3d600060203e6040516060f3",
  "source": "pragma solidity ^0.5.0;\r\n\r\ncontract Springboard {\r\n  bool _mutex;\r\n  bytes _pendingRuntimeCode;\r\n  \r\n  // this article explains how bootstrapCode is generated\r\n  // https://blog.ricmoo.com/wisps-the-magical-world-of-create2-5c2177027604\r\n  //\r\n  // It is slightly modified from the original to check for staticcall result and use returndatacopy\r\n  // scripts/bootstrap - contains the bytecodes breakdown\r\n  // scripts/assemble.js - assemble the bootstrap bytecodes\r\n  bytes public bootstrapCode = hex\"6394198df1600052600060006004601c335afa80601b57600080fd5b3d600060203e6040516060f3\";\r\n  \r\n  event ContractCreated(address);\r\n  \r\n  function execute(bytes memory runtimeCode) public payable {\r\n    require(!_mutex);\r\n    _mutex = true;\r\n      \r\n    // Store the desired runtime bytecode\r\n    _pendingRuntimeCode = runtimeCode;\r\n    \r\n    bytes memory initCode = bootstrapCode;\r\n    bytes32 salt = keccak256(abi.encodePacked(msg.sender));\r\n    address addr;\r\n    \r\n    // Create the new contract\r\n    assembly {\r\n      addr := create2(0, add(initCode, 0x20),\r\n                      mload(initCode), salt)\r\n      if iszero(extcodesize(addr)) { revert(0, 0) }\r\n    }\r\n\r\n    emit ContractCreated(addr);\r\n    _mutex = false;\r\n  }\r\n \r\n\r\n  // This function is called by the new contract during the create2 call\r\n  // from the bootstrap, fetching the desired bytecode\r\n  function getPendingRuntimeCode() public view returns\r\n                                   (bytes memory runtimeCode) {\r\n    return _pendingRuntimeCode;\r\n  }\r\n}\r\n",
  "sourcePath": "C:\\BCDV1013\\lab07\\contracts\\Springboard.sol",
  "compiler": {
    "name": "solc",
    "version": "0.5.16+commit.9c3226ce.Emscripten.clang"
  },
  "schemaVersion": "3.2.0",
  "updatedAt": "2020-07-18T02:02:13.408Z",
  "networkType": "ethereum",
  "devdoc": {
    "methods": {}
  },
  "userdoc": {
    "methods": {}
  }
}