{
  "contractName": "WalletV2",
  "abi": [
    {
      "constant": false,
      "inputs": [],
      "name": "die",
      "outputs": [],
      "payable": false,
      "stateMutability": "nonpayable",
      "type": "function"
    },
    {
      "constant": true,
      "inputs": [],
      "name": "version",
      "outputs": [
        {
          "internalType": "string",
          "name": "ver",
          "type": "string"
        }
      ],
      "payable": false,
      "stateMutability": "pure",
      "type": "function"
    }
  ],
  "bytecode": "0x608060405234801561001057600080fd5b50610154806100206000396000f3fe608060405234801561001057600080fd5b50600436106100365760003560e01c806335f469941461003b57806354fd4d5014610045575b600080fd5b6100436100c8565b005b61004d6100e2565b6040518080602001828103825283818151815260200191508051906020019080838360005b8381101561008d578082015181840152602081019050610072565b50505050905090810190601f1680156100ba5780820380516001836020036101000a031916815260200191505b509250505060405180910390f35b600073ffffffffffffffffffffffffffffffffffffffff16ff5b60606040518060400160405280600381526020017f322e30000000000000000000000000000000000000000000000000000000000081525090509056fea265627a7a72315820ae22ec1b20555509f37a5b86550347d3bd3047de0fd79bc42355dabc09bcc2bd64736f6c63430005100032",
  "source": "pragma solidity ^0.5.0;\r\n\r\ncontract WalletV2 {\r\n\r\n    function die() public {\r\n        selfdestruct(address(0));\r\n    }\r\n\r\n    function version() public pure returns (string memory ver) {\r\n       return \"2.0\";\r\n    }\r\n}\r\n",
  "sourcePath": "C:\\BCDV1013\\lab07\\contracts\\WalletV2.sol",
  "compiler": {
    "name": "solc",
    "version": "0.5.16+commit.9c3226ce.Emscripten.clang"
  },
  "schemaVersion": "3.2.0",
  "updatedAt": "2020-07-18T02:02:13.411Z",
  "networkType": "ethereum",
  "devdoc": {
    "methods": {}
  },
  "userdoc": {
    "methods": {}
  }
}